{
  "contractName": "AH",
  "abi": [
    {
      "inputs": [],
      "stateMutability": "nonpayable",
      "type": "constructor"
    },
    {
      "anonymous": false,
      "inputs": [],
      "name": "itemBuyed",
      "type": "event"
    },
    {
      "anonymous": false,
      "inputs": [],
      "name": "newItemListed",
      "type": "event"
    },
    {
      "inputs": [],
      "name": "addItem",
      "outputs": [],
      "stateMutability": "nonpayable",
      "type": "function"
    },
    {
      "inputs": [],
      "name": "buyItem",
      "outputs": [],
      "stateMutability": "nonpayable",
      "type": "function"
    }
  ],
  "bytecode": "0x608060405234801561001057600080fd5b50336000806101000a81548173ffffffffffffffffffffffffffffffffffffffff021916908373ffffffffffffffffffffffffffffffffffffffff16021790555060d98061005f6000396000f3fe6080604052348015600f57600080fd5b506004361060325760003560e01c80632b907700146037578063795612d614603f575b600080fd5b603d6047565b005b60456075565b005b7f1b1dc6cec51ce8df1066071505fafc1470541a5f77c199809c21d6aee637fb2c60405160405180910390a1565b7fca99ddf114c5de5a51473d0bf7c533ea55dc1592f3547151c2ecfa1d4b95034960405160405180910390a156fea264697066735822122098d0fd47c3a0142997b68a2a05bdbbd01d0c67f69aa282aac37d133220c2e2d164736f6c634300080b0033",
  "immutableReferences": {},
  "source": "// SPDX-License-Identifier: MIT\npragma solidity >=0.4.22 <0.9.0;\n\ncontract AH {\n    \n    //State Variables\n    address private contractOwner;\n\n    //Events\n    event newItemListed();\n    //event newPug(); Dependiente de tiempo, investigar como manejar esto\n    event itemBuyed();\n\n    constructor() public{\n        contractOwner = msg.sender;\n    }\n\n    function addItem() external{\n        emit newItemListed();\n    }\n    \n    /*\n    function addPug() external{\n        emit newPug();\n    }\n    */\n\n    function buyItem() external{\n        emit itemBuyed();\n    }\n\n}",
  "sourcePath": "/Users/aescuderoc/Documents/HuacalCode/erc1155-ah/blockchain/contracts/solidity/AH.sol",
  "compiler": {
    "name": "solc",
    "version": "0.8.11+commit.d7f03943.Emscripten.clang"
  },
  "schemaVersion": "3.4.4",
  "updatedAt": "2022-05-02T17:15:08.580Z",
  "devdoc": {
    "kind": "dev",
    "methods": {},
    "version": 1
  },
  "userdoc": {
    "kind": "user",
    "methods": {},
    "version": 1
  }
}