{
  "contractName": "Checker",
  "abi": [
    {
      "inputs": [
        {
          "internalType": "address",
          "name": "_checkerAddress",
          "type": "address"
        }
      ],
      "stateMutability": "nonpayable",
      "type": "constructor"
    },
    {
      "inputs": [],
      "name": "validateNewUploads",
      "outputs": [
        {
          "internalType": "bool",
          "name": "",
          "type": "bool"
        }
      ],
      "stateMutability": "view",
      "type": "function",
      "constant": true
    },
    {
      "inputs": [],
      "name": "getNewUploads",
      "outputs": [],
      "stateMutability": "nonpayable",
      "type": "function"
    }
  ],
  "bytecode": "0x608060405234801561001057600080fd5b5060405161039e38038061039e833981810160405281019061003291906100ce565b336000806101000a81548173ffffffffffffffffffffffffffffffffffffffff021916908373ffffffffffffffffffffffffffffffffffffffff16021790555080600160006101000a81548173ffffffffffffffffffffffffffffffffffffffff021916908373ffffffffffffffffffffffffffffffffffffffff16021790555050610140565b6000815190506100c881610129565b92915050565b6000602082840312156100e057600080fd5b60006100ee848285016100b9565b91505092915050565b600061010282610109565b9050919050565b600073ffffffffffffffffffffffffffffffffffffffff82169050919050565b610132816100f7565b811461013d57600080fd5b50565b61024f8061014f6000396000f3fe608060405234801561001057600080fd5b50600436106100365760003560e01c80633364cb0e1461003b578063fb0bb66914610045575b600080fd5b610043610063565b005b61004d6100e7565b60405161005a91906101db565b60405180910390f35b600160009054906101000a900473ffffffffffffffffffffffffffffffffffffffff1673ffffffffffffffffffffffffffffffffffffffff166396f6cc5c6040518163ffffffff1660e01b8152600401600060405180830381600087803b1580156100cd57600080fd5b505af11580156100e1573d6000803e3d6000fd5b50505050565b6000600160009054906101000a900473ffffffffffffffffffffffffffffffffffffffff1673ffffffffffffffffffffffffffffffffffffffff16638d729c116040518163ffffffff1660e01b815260040160206040518083038186803b15801561015157600080fd5b505afa158015610165573d6000803e3d6000fd5b505050506040513d601f19601f8201168201806040525081019061018991906101a3565b905090565b60008151905061019d81610202565b92915050565b6000602082840312156101b557600080fd5b60006101c38482850161018e565b91505092915050565b6101d5816101f6565b82525050565b60006020820190506101f060008301846101cc565b92915050565b60008115159050919050565b61020b816101f6565b811461021657600080fd5b5056fea264697066735822122053ac9086b3d0ff38da8f1a5858a26d4e8fc2f23f4c7bf44180d120524f5b18f864736f6c634300060c0033",
  "immutableReferences": {},
  "source": "// SPDX-License-Identifier: MIT\r\npragma solidity >=0.4.22 <0.9.0;\r\npragma experimental ABIEncoderV2;\r\nimport \"./ICheck.sol\";\r\n\r\ncontract Checker {\r\n  //State Variables\r\n  address private contractOwner;\r\n  address private checkerAddress;\r\n\r\n  constructor(address _checkerAddress) public{\r\n    contractOwner = msg.sender;\r\n    checkerAddress = _checkerAddress;\r\n  }\r\n\r\n  function validateNewUploads() external view returns(bool){\r\n    return ICheck(checkerAddress).checkUploads();\r\n  }\r\n\r\n  function getNewUploads() external{\r\n    ICheck(checkerAddress).getUploads();\r\n  }\r\n\r\n}",
  "sourcePath": "C:\\Users\\Alan\\POC\\IdentidadDigital-Demo\\identidad-digital-blockchain\\contracts\\solidity\\Checker.sol",
  "compiler": {
    "name": "solc",
    "version": "0.6.12+commit.27d51765.Emscripten.clang"
  },
  "schemaVersion": "3.4.3",
  "updatedAt": "2021-11-25T20:11:41.860Z",
  "networkType": "ethereum",
  "devdoc": {
    "kind": "dev",
    "methods": {},
    "version": 1
  },
  "userdoc": {
    "kind": "user",
    "methods": {},
    "version": 1
  }
}