{
  "contractName": "Check",
  "abi": [
    {
      "inputs": [],
      "stateMutability": "nonpayable",
      "type": "constructor"
    },
    {
      "anonymous": false,
      "inputs": [],
      "name": "fileUploaded",
      "type": "event"
    },
    {
      "anonymous": false,
      "inputs": [
        {
          "indexed": false,
          "internalType": "string[]",
          "name": "_fileList",
          "type": "string[]"
        }
      ],
      "name": "gotFiles",
      "type": "event"
    },
    {
      "inputs": [
        {
          "internalType": "string",
          "name": "_file",
          "type": "string"
        }
      ],
      "name": "fileUpload",
      "outputs": [],
      "stateMutability": "nonpayable",
      "type": "function"
    },
    {
      "inputs": [],
      "name": "checkUploads",
      "outputs": [
        {
          "internalType": "bool",
          "name": "",
          "type": "bool"
        }
      ],
      "stateMutability": "view",
      "type": "function",
      "constant": true
    },
    {
      "inputs": [],
      "name": "getUploads",
      "outputs": [],
      "stateMutability": "nonpayable",
      "type": "function"
    }
  ],
  "bytecode": "0x608060405260008060146101000a81548160ff02191690831515021790555034801561002a57600080fd5b50336000806101000a81548173ffffffffffffffffffffffffffffffffffffffff021916908373ffffffffffffffffffffffffffffffffffffffff1602179055506106c98061007a6000396000f3fe608060405234801561001057600080fd5b50600436106100415760003560e01c80638d729c111461004657806396f6cc5c14610064578063ca4a21921461006e575b600080fd5b61004e61008a565b60405161005b919061056b565b60405180910390f35b61006c6100a0565b005b61008860048036038101906100839190610437565b6101f4565b005b60008060149054906101000a900460ff16905090565b60008060146101000a81548160ff02191690831515021790555060606001805480602002602001604051908101604052809291908181526020016000905b8282101561019a578382906000526020600020018054600181600116156101000203166002900480601f0160208091040260200160405190810160405280929190818152602001828054600181600116156101000203166002900480156101865780601f1061015b57610100808354040283529160200191610186565b820191906000526020600020905b81548152906001019060200180831161016957829003601f168201915b5050505050815260200190600101906100de565b505050509050606080600190805190602001906101b892919061027a565b507f7e1fc384b8fdc50e7bb4c46d216ea0137b78ec4d71c3df79e9361b4a07e8888f826040516101e89190610549565b60405180910390a15050565b6001600060146101000a81548160ff02191690831515021790555060018190806001815401808255809150506001900390600052602060002001600090919091909150908051906020019061024a9291906102da565b507f22dfe38d1f0a340c821fa8ca54e81aa9a6636dec25af258ebd3e05b01736a55660405160405180910390a150565b8280548282559060005260206000209081019282156102c9579160200282015b828111156102c85782518290805190602001906102b89291906102da565b509160200191906001019061029a565b5b5090506102d6919061035a565b5090565b828054600181600116156101000203166002900490600052602060002090601f016020900481019282601f1061031b57805160ff1916838001178555610349565b82800160010185558215610349579182015b8281111561034857825182559160200191906001019061032d565b5b509050610356919061037e565b5090565b5b8082111561037a5760008181610371919061039b565b5060010161035b565b5090565b5b8082111561039757600081600090555060010161037f565b5090565b50805460018160011615610100020316600290046000825580601f106103c157506103e0565b601f0160209004906000526020600020908101906103df919061037e565b5b50565b600082601f8301126103f457600080fd5b8135610407610402826105b3565b610586565b9150808252602083016020830185838301111561042357600080fd5b61042e838284610640565b50505092915050565b60006020828403121561044957600080fd5b600082013567ffffffffffffffff81111561046357600080fd5b61046f848285016103e3565b91505092915050565b60006104848383610510565b905092915050565b6000610497826105ef565b6104a18185610612565b9350836020820285016104b3856105df565b8060005b858110156104ef57848403895281516104d08582610478565b94506104db83610605565b925060208a019950506001810190506104b7565b50829750879550505050505092915050565b61050a81610634565b82525050565b600061051b826105fa565b6105258185610623565b935061053581856020860161064f565b61053e81610682565b840191505092915050565b60006020820190508181036000830152610563818461048c565b905092915050565b60006020820190506105806000830184610501565b92915050565b6000604051905081810181811067ffffffffffffffff821117156105a957600080fd5b8060405250919050565b600067ffffffffffffffff8211156105ca57600080fd5b601f19601f8301169050602081019050919050565b6000819050602082019050919050565b600081519050919050565b600081519050919050565b6000602082019050919050565b600082825260208201905092915050565b600082825260208201905092915050565b60008115159050919050565b82818337600083830152505050565b60005b8381101561066d578082015181840152602081019050610652565b8381111561067c576000848401525b50505050565b6000601f19601f830116905091905056fea264697066735822122069f4e64531d175a3eb44c260115ec3876fbffcbc3b8bb12855ec11ecb3c7c0a764736f6c634300060c0033",
  "immutableReferences": {},
  "source": "// SPDX-License-Identifier: MIT\r\npragma solidity >=0.4.22 <0.9.0;\r\npragma experimental ABIEncoderV2;\r\n\r\ncontract Check {\r\n\r\n  //State Variables\r\n  address private contractOwner;\r\n  bool internal fileNotification = false;\r\n  string[] internal fileList;\r\n\r\n  //Events\r\n  event fileUploaded();\r\n  event gotFiles(string[] _fileList);\r\n\r\n  constructor() public{\r\n    contractOwner = msg.sender;\r\n  }\r\n\r\n  function fileUpload(string memory _file) external{\r\n    fileNotification = true;\r\n    fileList.push(_file);\r\n    emit fileUploaded();\r\n  }\r\n\r\n  function checkUploads() external view returns(bool){\r\n    return fileNotification;\r\n  }\r\n\r\n  function getUploads() external{\r\n    fileNotification = false;\r\n    string[] memory temporal = fileList;\r\n    string[] memory empty;\r\n    fileList = empty;\r\n    emit gotFiles(temporal);\r\n  }\r\n\r\n}",
  "sourcePath": "C:\\Users\\Alan\\POC\\IdentidadDigital-Demo\\identidad-digital-blockchain\\contracts\\solidity\\Check.sol",
  "compiler": {
    "name": "solc",
    "version": "0.6.12+commit.27d51765.Emscripten.clang"
  },
  "schemaVersion": "3.4.3",
  "updatedAt": "2021-11-25T20:11:41.858Z",
  "networkType": "ethereum",
  "devdoc": {
    "kind": "dev",
    "methods": {},
    "version": 1
  },
  "userdoc": {
    "kind": "user",
    "methods": {},
    "version": 1
  }
}