{
  "contractName": "Faucet",
  "abi": [
    {
      "inputs": [],
      "stateMutability": "nonpayable",
      "type": "constructor"
    },
    {
      "anonymous": false,
      "inputs": [
        {
          "indexed": false,
          "internalType": "address",
          "name": "",
          "type": "address"
        }
      ],
      "name": "newAccountFunded",
      "type": "event"
    },
    {
      "inputs": [],
      "name": "fundAccount",
      "outputs": [],
      "stateMutability": "nonpayable",
      "type": "function"
    }
  ],
  "bytecode": "0x608060405234801561001057600080fd5b50336000806101000a81548173ffffffffffffffffffffffffffffffffffffffff021916908373ffffffffffffffffffffffffffffffffffffffff16021790555060f88061005f6000396000f3fe6080604052348015600f57600080fd5b506004361060285760003560e01c8063d9a8748c14602d575b600080fd5b60336035565b005b7f6d1ab4eb9c9fe3f71216c4da9b45a706163301c6d8a7a54bddada966c94cb77e336040516062919060a9565b60405180910390a1565b600073ffffffffffffffffffffffffffffffffffffffff82169050919050565b6000609582606c565b9050919050565b60a381608c565b82525050565b600060208201905060bc6000830184609c565b9291505056fea2646970667358221220434baa8f9297e98b1a722194bece176bbea29887b57d271b9de1381d6246c2b264736f6c634300080b0033",
  "immutableReferences": {},
  "source": "// SPDX-License-Identifier: MIT\npragma solidity >=0.4.22 <0.9.0;\n\ncontract Faucet {\n    \n    //State Variables\n    address private contractOwner;\n\n    //Events\n    event newAccountFunded(address);\n\n    constructor() public{\n        contractOwner = msg.sender;\n    }\n\n    function fundAccount() external{\n        //can fund account just one time\n        emit newAccountFunded(msg.sender);\n    }\n\n}",
  "sourcePath": "/Users/aescuderoc/Documents/HuacalCode/erc1155-ah/blockchain/contracts/solidity/Faucet.sol",
  "compiler": {
    "name": "solc",
    "version": "0.8.11+commit.d7f03943.Emscripten.clang"
  },
  "schemaVersion": "3.4.4",
  "updatedAt": "2022-05-02T17:15:08.584Z",
  "devdoc": {
    "kind": "dev",
    "methods": {},
    "version": 1
  },
  "userdoc": {
    "kind": "user",
    "methods": {},
    "version": 1
  }
}