{
  "contractName": "Gallery",
  "abi": [
    {
      "inputs": [
        {
          "internalType": "address",
          "name": "faucetAddress",
          "type": "address"
        }
      ],
      "stateMutability": "nonpayable",
      "type": "constructor"
    },
    {
      "anonymous": false,
      "inputs": [
        {
          "indexed": true,
          "internalType": "address",
          "name": "account",
          "type": "address"
        },
        {
          "indexed": true,
          "internalType": "address",
          "name": "operator",
          "type": "address"
        },
        {
          "indexed": false,
          "internalType": "bool",
          "name": "approved",
          "type": "bool"
        }
      ],
      "name": "ApprovalForAll",
      "type": "event"
    },
    {
      "anonymous": false,
      "inputs": [
        {
          "indexed": true,
          "internalType": "address",
          "name": "operator",
          "type": "address"
        },
        {
          "indexed": true,
          "internalType": "address",
          "name": "from",
          "type": "address"
        },
        {
          "indexed": true,
          "internalType": "address",
          "name": "to",
          "type": "address"
        },
        {
          "indexed": false,
          "internalType": "uint256[]",
          "name": "ids",
          "type": "uint256[]"
        },
        {
          "indexed": false,
          "internalType": "uint256[]",
          "name": "values",
          "type": "uint256[]"
        }
      ],
      "name": "TransferBatch",
      "type": "event"
    },
    {
      "anonymous": false,
      "inputs": [
        {
          "indexed": true,
          "internalType": "address",
          "name": "operator",
          "type": "address"
        },
        {
          "indexed": true,
          "internalType": "address",
          "name": "from",
          "type": "address"
        },
        {
          "indexed": true,
          "internalType": "address",
          "name": "to",
          "type": "address"
        },
        {
          "indexed": false,
          "internalType": "uint256",
          "name": "id",
          "type": "uint256"
        },
        {
          "indexed": false,
          "internalType": "uint256",
          "name": "value",
          "type": "uint256"
        }
      ],
      "name": "TransferSingle",
      "type": "event"
    },
    {
      "anonymous": false,
      "inputs": [
        {
          "indexed": false,
          "internalType": "string",
          "name": "value",
          "type": "string"
        },
        {
          "indexed": true,
          "internalType": "uint256",
          "name": "id",
          "type": "uint256"
        }
      ],
      "name": "URI",
      "type": "event"
    },
    {
      "inputs": [],
      "name": "GOLD",
      "outputs": [
        {
          "internalType": "uint256",
          "name": "",
          "type": "uint256"
        }
      ],
      "stateMutability": "view",
      "type": "function"
    },
    {
      "inputs": [
        {
          "internalType": "address",
          "name": "account",
          "type": "address"
        },
        {
          "internalType": "uint256",
          "name": "id",
          "type": "uint256"
        }
      ],
      "name": "balanceOf",
      "outputs": [
        {
          "internalType": "uint256",
          "name": "",
          "type": "uint256"
        }
      ],
      "stateMutability": "view",
      "type": "function"
    },
    {
      "inputs": [
        {
          "internalType": "address[]",
          "name": "accounts",
          "type": "address[]"
        },
        {
          "internalType": "uint256[]",
          "name": "ids",
          "type": "uint256[]"
        }
      ],
      "name": "balanceOfBatch",
      "outputs": [
        {
          "internalType": "uint256[]",
          "name": "",
          "type": "uint256[]"
        }
      ],
      "stateMutability": "view",
      "type": "function"
    },
    {
      "inputs": [
        {
          "internalType": "address",
          "name": "account",
          "type": "address"
        },
        {
          "internalType": "address",
          "name": "operator",
          "type": "address"
        }
      ],
      "name": "isApprovedForAll",
      "outputs": [
        {
          "internalType": "bool",
          "name": "",
          "type": "bool"
        }
      ],
      "stateMutability": "view",
      "type": "function"
    },
    {
      "inputs": [
        {
          "internalType": "address",
          "name": "from",
          "type": "address"
        },
        {
          "internalType": "address",
          "name": "to",
          "type": "address"
        },
        {
          "internalType": "uint256[]",
          "name": "ids",
          "type": "uint256[]"
        },
        {
          "internalType": "uint256[]",
          "name": "amounts",
          "type": "uint256[]"
        },
        {
          "internalType": "bytes",
          "name": "data",
          "type": "bytes"
        }
      ],
      "name": "safeBatchTransferFrom",
      "outputs": [],
      "stateMutability": "nonpayable",
      "type": "function"
    },
    {
      "inputs": [
        {
          "internalType": "address",
          "name": "from",
          "type": "address"
        },
        {
          "internalType": "address",
          "name": "to",
          "type": "address"
        },
        {
          "internalType": "uint256",
          "name": "id",
          "type": "uint256"
        },
        {
          "internalType": "uint256",
          "name": "amount",
          "type": "uint256"
        },
        {
          "internalType": "bytes",
          "name": "data",
          "type": "bytes"
        }
      ],
      "name": "safeTransferFrom",
      "outputs": [],
      "stateMutability": "nonpayable",
      "type": "function"
    },
    {
      "inputs": [
        {
          "internalType": "address",
          "name": "operator",
          "type": "address"
        },
        {
          "internalType": "bool",
          "name": "approved",
          "type": "bool"
        }
      ],
      "name": "setApprovalForAll",
      "outputs": [],
      "stateMutability": "nonpayable",
      "type": "function"
    },
    {
      "inputs": [
        {
          "internalType": "bytes4",
          "name": "interfaceId",
          "type": "bytes4"
        }
      ],
      "name": "supportsInterface",
      "outputs": [
        {
          "internalType": "bool",
          "name": "",
          "type": "bool"
        }
      ],
      "stateMutability": "view",
      "type": "function"
    },
    {
      "inputs": [
        {
          "internalType": "uint256",
          "name": "",
          "type": "uint256"
        }
      ],
      "name": "uri",
      "outputs": [
        {
          "internalType": "string",
          "name": "",
          "type": "string"
        }
      ],
      "stateMutability": "view",
      "type": "function"
    }
  ],
  "bytecode": "0x60806040523480156200001157600080fd5b50604051620033663803806200336683398181016040528101906200003791906200067b565b6040518060600160405280602781526020016200333f6027913962000062816200009d60201b60201c565b50620000968160006ec097ce7bc90715b34b9f100000000060405180602001604052806000815250620000b960201b60201c565b5062000d3f565b8060029080519060200190620000b592919062000557565b5050565b600073ffffffffffffffffffffffffffffffffffffffff168473ffffffffffffffffffffffffffffffffffffffff1614156200012c576040517f08c379a0000000000000000000000000000000000000000000000000000000008152600401620001239062000734565b60405180910390fd5b60006200013e620002a160201b60201c565b905060006200015385620002a960201b60201c565b905060006200016885620002a960201b60201c565b905062000181836000898585896200032a60201b60201c565b8460008088815260200190815260200160002060008973ffffffffffffffffffffffffffffffffffffffff1673ffffffffffffffffffffffffffffffffffffffff1681526020019081526020016000206000828254620001e291906200078f565b925050819055508673ffffffffffffffffffffffffffffffffffffffff16600073ffffffffffffffffffffffffffffffffffffffff168473ffffffffffffffffffffffffffffffffffffffff167fc3d58168c5ae7397731d063d5bbf3d657854427343f4c083240f7aacaa2d0f62898960405162000262929190620007fd565b60405180910390a462000281836000898585896200033260201b60201c565b62000298836000898989896200033a60201b60201c565b50505050505050565b600033905090565b60606000600167ffffffffffffffff811115620002cb57620002ca6200082a565b5b604051908082528060200260200182016040528015620002fa5781602001602082028036833780820191505090505b509050828160008151811062000315576200031462000859565b5b60200260200101818152505080915050919050565b505050505050565b505050505050565b620003668473ffffffffffffffffffffffffffffffffffffffff166200053460201b620007421760201c565b156200052c578373ffffffffffffffffffffffffffffffffffffffff1663f23a6e6187878686866040518663ffffffff1660e01b8152600401620003af9594939291906200093d565b6020604051808303816000875af1925050508015620003ee57506040513d601f19601f82011682018060405250810190620003eb9190620009fe565b60015b620004a057620003fd62000a3d565b806308c379a014156200046157506200041562000a98565b8062000422575062000463565b806040517f08c379a000000000000000000000000000000000000000000000000000000000815260040162000458919062000b86565b60405180910390fd5b505b6040517f08c379a0000000000000000000000000000000000000000000000000000000008152600401620004979062000c20565b60405180910390fd5b63f23a6e6160e01b7bffffffffffffffffffffffffffffffffffffffffffffffffffffffff1916817bffffffffffffffffffffffffffffffffffffffffffffffffffffffff1916146200052a576040517f08c379a0000000000000000000000000000000000000000000000000000000008152600401620005219062000cb8565b60405180910390fd5b505b505050505050565b6000808273ffffffffffffffffffffffffffffffffffffffff163b119050919050565b828054620005659062000d09565b90600052602060002090601f016020900481019282620005895760008555620005d5565b82601f10620005a457805160ff1916838001178555620005d5565b82800160010185558215620005d5579182015b82811115620005d4578251825591602001919060010190620005b7565b5b509050620005e49190620005e8565b5090565b5b8082111562000603576000816000905550600101620005e9565b5090565b6000604051905090565b600080fd5b600073ffffffffffffffffffffffffffffffffffffffff82169050919050565b6000620006438262000616565b9050919050565b620006558162000636565b81146200066157600080fd5b50565b60008151905062000675816200064a565b92915050565b60006020828403121562000694576200069362000611565b5b6000620006a48482850162000664565b91505092915050565b600082825260208201905092915050565b7f455243313135353a206d696e7420746f20746865207a65726f2061646472657360008201527f7300000000000000000000000000000000000000000000000000000000000000602082015250565b60006200071c602183620006ad565b91506200072982620006be565b604082019050919050565b600060208201905081810360008301526200074f816200070d565b9050919050565b6000819050919050565b7f4e487b7100000000000000000000000000000000000000000000000000000000600052601160045260246000fd5b60006200079c8262000756565b9150620007a98362000756565b9250827fffffffffffffffffffffffffffffffffffffffffffffffffffffffffffffffff03821115620007e157620007e062000760565b5b828201905092915050565b620007f78162000756565b82525050565b6000604082019050620008146000830185620007ec565b620008236020830184620007ec565b9392505050565b7f4e487b7100000000000000000000000000000000000000000000000000000000600052604160045260246000fd5b7f4e487b7100000000000000000000000000000000000000000000000000000000600052603260045260246000fd5b620008938162000636565b82525050565b600081519050919050565b600082825260208201905092915050565b60005b83811015620008d5578082015181840152602081019050620008b8565b83811115620008e5576000848401525b50505050565b6000601f19601f8301169050919050565b6000620009098262000899565b620009158185620008a4565b935062000927818560208601620008b5565b6200093281620008eb565b840191505092915050565b600060a08201905062000954600083018862000888565b62000963602083018762000888565b620009726040830186620007ec565b620009816060830185620007ec565b8181036080830152620009958184620008fc565b90509695505050505050565b60007fffffffff0000000000000000000000000000000000000000000000000000000082169050919050565b620009d881620009a1565b8114620009e457600080fd5b50565b600081519050620009f881620009cd565b92915050565b60006020828403121562000a175762000a1662000611565b5b600062000a2784828501620009e7565b91505092915050565b60008160e01c9050919050565b600060033d111562000a5f5760046000803e62000a5c60005162000a30565b90505b90565b62000a6d82620008eb565b810181811067ffffffffffffffff8211171562000a8f5762000a8e6200082a565b5b80604052505050565b600060443d101562000aaa5762000b37565b62000ab462000607565b60043d036004823e80513d602482011167ffffffffffffffff8211171562000ade57505062000b37565b808201805167ffffffffffffffff81111562000afe575050505062000b37565b80602083010160043d03850181111562000b1d57505050505062000b37565b62000b2e8260200185018662000a62565b82955050505050505b90565b600081519050919050565b600062000b528262000b3a565b62000b5e8185620006ad565b935062000b70818560208601620008b5565b62000b7b81620008eb565b840191505092915050565b6000602082019050818103600083015262000ba2818462000b45565b905092915050565b7f455243313135353a207472616e7366657220746f206e6f6e204552433131353560008201527f526563656976657220696d706c656d656e746572000000000000000000000000602082015250565b600062000c08603483620006ad565b915062000c158262000baa565b604082019050919050565b6000602082019050818103600083015262000c3b8162000bf9565b9050919050565b7f455243313135353a204552433131353552656365697665722072656a6563746560008201527f6420746f6b656e73000000000000000000000000000000000000000000000000602082015250565b600062000ca0602883620006ad565b915062000cad8262000c42565b604082019050919050565b6000602082019050818103600083015262000cd38162000c91565b9050919050565b7f4e487b7100000000000000000000000000000000000000000000000000000000600052602260045260246000fd5b6000600282049050600182168062000d2257607f821691505b6020821081141562000d395762000d3862000cda565b5b50919050565b6125f08062000d4f6000396000f3fe608060405234801561001057600080fd5b50600436106100925760003560e01c80633e4bee38116100665780633e4bee38146101435780634e1273f414610161578063a22cb46514610191578063e985e9c5146101ad578063f242432a146101dd57610092565b8062fdd58e1461009757806301ffc9a7146100c75780630e89341c146100f75780632eb2c2d614610127575b600080fd5b6100b160048036038101906100ac91906113e4565b6101f9565b6040516100be9190611433565b60405180910390f35b6100e160048036038101906100dc91906114a6565b6102c2565b6040516100ee91906114ee565b60405180910390f35b610111600480360381019061010c9190611509565b6103a4565b60405161011e91906115cf565b60405180910390f35b610141600480360381019061013c91906117ee565b610438565b005b61014b6104d9565b6040516101589190611433565b60405180910390f35b61017b60048036038101906101769190611980565b6104de565b6040516101889190611ab6565b60405180910390f35b6101ab60048036038101906101a69190611b04565b6105f7565b005b6101c760048036038101906101c29190611b44565b61060d565b6040516101d491906114ee565b60405180910390f35b6101f760048036038101906101f29190611b84565b6106a1565b005b60008073ffffffffffffffffffffffffffffffffffffffff168373ffffffffffffffffffffffffffffffffffffffff16141561026a576040517f08c379a000000000000000000000000000000000000000000000000000000000815260040161026190611c8d565b60405180910390fd5b60008083815260200190815260200160002060008473ffffffffffffffffffffffffffffffffffffffff1673ffffffffffffffffffffffffffffffffffffffff16815260200190815260200160002054905092915050565b60007fd9b67a26000000000000000000000000000000000000000000000000000000007bffffffffffffffffffffffffffffffffffffffffffffffffffffffff1916827bffffffffffffffffffffffffffffffffffffffffffffffffffffffff1916148061038d57507f0e89341c000000000000000000000000000000000000000000000000000000007bffffffffffffffffffffffffffffffffffffffffffffffffffffffff1916827bffffffffffffffffffffffffffffffffffffffffffffffffffffffff1916145b8061039d575061039c82610765565b5b9050919050565b6060600280546103b390611cdc565b80601f01602080910402602001604051908101604052809291908181526020018280546103df90611cdc565b801561042c5780601f106104015761010080835404028352916020019161042c565b820191906000526020600020905b81548152906001019060200180831161040f57829003601f168201915b50505050509050919050565b6104406107cf565b73ffffffffffffffffffffffffffffffffffffffff168573ffffffffffffffffffffffffffffffffffffffff1614806104865750610485856104806107cf565b61060d565b5b6104c5576040517f08c379a00000000000000000000000000000000000000000000000000000000081526004016104bc90611d80565b60405180910390fd5b6104d285858585856107d7565b5050505050565b600081565b60608151835114610524576040517f08c379a000000000000000000000000000000000000000000000000000000000815260040161051b90611e12565b60405180910390fd5b6000835167ffffffffffffffff811115610541576105406115f6565b5b60405190808252806020026020018201604052801561056f5781602001602082028036833780820191505090505b50905060005b84518110156105ec576105bc85828151811061059457610593611e32565b5b60200260200101518583815181106105af576105ae611e32565b5b60200260200101516101f9565b8282815181106105cf576105ce611e32565b5b602002602001018181525050806105e590611e90565b9050610575565b508091505092915050565b6106096106026107cf565b8383610af9565b5050565b6000600160008473ffffffffffffffffffffffffffffffffffffffff1673ffffffffffffffffffffffffffffffffffffffff16815260200190815260200160002060008373ffffffffffffffffffffffffffffffffffffffff1673ffffffffffffffffffffffffffffffffffffffff16815260200190815260200160002060009054906101000a900460ff16905092915050565b6106a96107cf565b73ffffffffffffffffffffffffffffffffffffffff168573ffffffffffffffffffffffffffffffffffffffff1614806106ef57506106ee856106e96107cf565b61060d565b5b61072e576040517f08c379a000000000000000000000000000000000000000000000000000000000815260040161072590611f4b565b60405180910390fd5b61073b8585858585610c66565b5050505050565b6000808273ffffffffffffffffffffffffffffffffffffffff163b119050919050565b60007f01ffc9a7000000000000000000000000000000000000000000000000000000007bffffffffffffffffffffffffffffffffffffffffffffffffffffffff1916827bffffffffffffffffffffffffffffffffffffffffffffffffffffffff1916149050919050565b600033905090565b815183511461081b576040517f08c379a000000000000000000000000000000000000000000000000000000000815260040161081290611fdd565b60405180910390fd5b600073ffffffffffffffffffffffffffffffffffffffff168473ffffffffffffffffffffffffffffffffffffffff16141561088b576040517f08c379a00000000000000000000000000000000000000000000000000000000081526004016108829061206f565b60405180910390fd5b60006108956107cf565b90506108a5818787878787610f02565b60005b8451811015610a565760008582815181106108c6576108c5611e32565b5b6020026020010151905060008583815181106108e5576108e4611e32565b5b60200260200101519050600080600084815260200190815260200160002060008b73ffffffffffffffffffffffffffffffffffffffff1673ffffffffffffffffffffffffffffffffffffffff16815260200190815260200160002054905081811015610986576040517f08c379a000000000000000000000000000000000000000000000000000000000815260040161097d90612101565b60405180910390fd5b81810360008085815260200190815260200160002060008c73ffffffffffffffffffffffffffffffffffffffff1673ffffffffffffffffffffffffffffffffffffffff168152602001908152602001600020819055508160008085815260200190815260200160002060008b73ffffffffffffffffffffffffffffffffffffffff1673ffffffffffffffffffffffffffffffffffffffff1681526020019081526020016000206000828254610a3b9190612121565b9250508190555050505080610a4f90611e90565b90506108a8565b508473ffffffffffffffffffffffffffffffffffffffff168673ffffffffffffffffffffffffffffffffffffffff168273ffffffffffffffffffffffffffffffffffffffff167f4a39dc06d4c0dbc64b70af90fd698a233a518aa5d07e595d983b8c0526c8f7fb8787604051610acd929190612177565b60405180910390a4610ae3818787878787610f0a565b610af1818787878787610f12565b505050505050565b8173ffffffffffffffffffffffffffffffffffffffff168373ffffffffffffffffffffffffffffffffffffffff161415610b68576040517f08c379a0000000000000000000000000000000000000000000000000000000008152600401610b5f90612220565b60405180910390fd5b80600160008573ffffffffffffffffffffffffffffffffffffffff1673ffffffffffffffffffffffffffffffffffffffff16815260200190815260200160002060008473ffffffffffffffffffffffffffffffffffffffff1673ffffffffffffffffffffffffffffffffffffffff16815260200190815260200160002060006101000a81548160ff0219169083151502179055508173ffffffffffffffffffffffffffffffffffffffff168373ffffffffffffffffffffffffffffffffffffffff167f17307eab39ab6107e8899845ad3d59bd9653f200f220920489ca2b5937696c3183604051610c5991906114ee565b60405180910390a3505050565b600073ffffffffffffffffffffffffffffffffffffffff168473ffffffffffffffffffffffffffffffffffffffff161415610cd6576040517f08c379a0000000000000000000000000000000000000000000000000000000008152600401610ccd9061206f565b60405180910390fd5b6000610ce06107cf565b90506000610ced856110ea565b90506000610cfa856110ea565b9050610d0a838989858589610f02565b600080600088815260200190815260200160002060008a73ffffffffffffffffffffffffffffffffffffffff1673ffffffffffffffffffffffffffffffffffffffff16815260200190815260200160002054905085811015610da1576040517f08c379a0000000000000000000000000000000000000000000000000000000008152600401610d9890612101565b60405180910390fd5b85810360008089815260200190815260200160002060008b73ffffffffffffffffffffffffffffffffffffffff1673ffffffffffffffffffffffffffffffffffffffff168152602001908152602001600020819055508560008089815260200190815260200160002060008a73ffffffffffffffffffffffffffffffffffffffff1673ffffffffffffffffffffffffffffffffffffffff1681526020019081526020016000206000828254610e569190612121565b925050819055508773ffffffffffffffffffffffffffffffffffffffff168973ffffffffffffffffffffffffffffffffffffffff168573ffffffffffffffffffffffffffffffffffffffff167fc3d58168c5ae7397731d063d5bbf3d657854427343f4c083240f7aacaa2d0f628a8a604051610ed3929190612240565b60405180910390a4610ee9848a8a86868a610f0a565b610ef7848a8a8a8a8a611164565b505050505050505050565b505050505050565b505050505050565b610f318473ffffffffffffffffffffffffffffffffffffffff16610742565b156110e2578373ffffffffffffffffffffffffffffffffffffffff1663bc197c8187878686866040518663ffffffff1660e01b8152600401610f779594939291906122cd565b6020604051808303816000875af1925050508015610fb357506040513d601f19601f82011682018060405250810190610fb0919061234a565b60015b61105957610fbf612384565b806308c379a0141561101c5750610fd46123a6565b80610fdf575061101e565b806040517f08c379a000000000000000000000000000000000000000000000000000000000815260040161101391906115cf565b60405180910390fd5b505b6040517f08c379a0000000000000000000000000000000000000000000000000000000008152600401611050906124ae565b60405180910390fd5b63bc197c8160e01b7bffffffffffffffffffffffffffffffffffffffffffffffffffffffff1916817bffffffffffffffffffffffffffffffffffffffffffffffffffffffff1916146110e0576040517f08c379a00000000000000000000000000000000000000000000000000000000081526004016110d790612540565b60405180910390fd5b505b505050505050565b60606000600167ffffffffffffffff811115611109576111086115f6565b5b6040519080825280602002602001820160405280156111375781602001602082028036833780820191505090505b509050828160008151811061114f5761114e611e32565b5b60200260200101818152505080915050919050565b6111838473ffffffffffffffffffffffffffffffffffffffff16610742565b15611334578373ffffffffffffffffffffffffffffffffffffffff1663f23a6e6187878686866040518663ffffffff1660e01b81526004016111c9959493929190612560565b6020604051808303816000875af192505050801561120557506040513d601f19601f82011682018060405250810190611202919061234a565b60015b6112ab57611211612384565b806308c379a0141561126e57506112266123a6565b806112315750611270565b806040517f08c379a000000000000000000000000000000000000000000000000000000000815260040161126591906115cf565b60405180910390fd5b505b6040517f08c379a00000000000000000000000000000000000000000000000000000000081526004016112a2906124ae565b60405180910390fd5b63f23a6e6160e01b7bffffffffffffffffffffffffffffffffffffffffffffffffffffffff1916817bffffffffffffffffffffffffffffffffffffffffffffffffffffffff191614611332576040517f08c379a000000000000000000000000000000000000000000000000000000000815260040161132990612540565b60405180910390fd5b505b505050505050565b6000604051905090565b600080fd5b600080fd5b600073ffffffffffffffffffffffffffffffffffffffff82169050919050565b600061137b82611350565b9050919050565b61138b81611370565b811461139657600080fd5b50565b6000813590506113a881611382565b92915050565b6000819050919050565b6113c1816113ae565b81146113cc57600080fd5b50565b6000813590506113de816113b8565b92915050565b600080604083850312156113fb576113fa611346565b5b600061140985828601611399565b925050602061141a858286016113cf565b9150509250929050565b61142d816113ae565b82525050565b60006020820190506114486000830184611424565b92915050565b60007fffffffff0000000000000000000000000000000000000000000000000000000082169050919050565b6114838161144e565b811461148e57600080fd5b50565b6000813590506114a08161147a565b92915050565b6000602082840312156114bc576114bb611346565b5b60006114ca84828501611491565b91505092915050565b60008115159050919050565b6114e8816114d3565b82525050565b600060208201905061150360008301846114df565b92915050565b60006020828403121561151f5761151e611346565b5b600061152d848285016113cf565b91505092915050565b600081519050919050565b600082825260208201905092915050565b60005b83811015611570578082015181840152602081019050611555565b8381111561157f576000848401525b50505050565b6000601f19601f8301169050919050565b60006115a182611536565b6115ab8185611541565b93506115bb818560208601611552565b6115c481611585565b840191505092915050565b600060208201905081810360008301526115e98184611596565b905092915050565b600080fd5b7f4e487b7100000000000000000000000000000000000000000000000000000000600052604160045260246000fd5b61162e82611585565b810181811067ffffffffffffffff8211171561164d5761164c6115f6565b5b80604052505050565b600061166061133c565b905061166c8282611625565b919050565b600067ffffffffffffffff82111561168c5761168b6115f6565b5b602082029050602081019050919050565b600080fd5b60006116b56116b084611671565b611656565b905080838252602082019050602084028301858111156116d8576116d761169d565b5b835b8181101561170157806116ed88826113cf565b8452602084019350506020810190506116da565b5050509392505050565b600082601f8301126117205761171f6115f1565b5b81356117308482602086016116a2565b91505092915050565b600080fd5b600067ffffffffffffffff821115611759576117586115f6565b5b61176282611585565b9050602081019050919050565b82818337600083830152505050565b600061179161178c8461173e565b611656565b9050828152602081018484840111156117ad576117ac611739565b5b6117b884828561176f565b509392505050565b600082601f8301126117d5576117d46115f1565b5b81356117e584826020860161177e565b91505092915050565b600080600080600060a0868803121561180a57611809611346565b5b600061181888828901611399565b955050602061182988828901611399565b945050604086013567ffffffffffffffff81111561184a5761184961134b565b5b6118568882890161170b565b935050606086013567ffffffffffffffff8111156118775761187661134b565b5b6118838882890161170b565b925050608086013567ffffffffffffffff8111156118a4576118a361134b565b5b6118b0888289016117c0565b9150509295509295909350565b600067ffffffffffffffff8211156118d8576118d76115f6565b5b602082029050602081019050919050565b60006118fc6118f7846118bd565b611656565b9050808382526020820190506020840283018581111561191f5761191e61169d565b5b835b8181101561194857806119348882611399565b845260208401935050602081019050611921565b5050509392505050565b600082601f830112611967576119666115f1565b5b81356119778482602086016118e9565b91505092915050565b6000806040838503121561199757611996611346565b5b600083013567ffffffffffffffff8111156119b5576119b461134b565b5b6119c185828601611952565b925050602083013567ffffffffffffffff8111156119e2576119e161134b565b5b6119ee8582860161170b565b9150509250929050565b600081519050919050565b600082825260208201905092915050565b6000819050602082019050919050565b611a2d816113ae565b82525050565b6000611a3f8383611a24565b60208301905092915050565b6000602082019050919050565b6000611a63826119f8565b611a6d8185611a03565b9350611a7883611a14565b8060005b83811015611aa9578151611a908882611a33565b9750611a9b83611a4b565b925050600181019050611a7c565b5085935050505092915050565b60006020820190508181036000830152611ad08184611a58565b905092915050565b611ae1816114d3565b8114611aec57600080fd5b50565b600081359050611afe81611ad8565b92915050565b60008060408385031215611b1b57611b1a611346565b5b6000611b2985828601611399565b9250506020611b3a85828601611aef565b9150509250929050565b60008060408385031215611b5b57611b5a611346565b5b6000611b6985828601611399565b9250506020611b7a85828601611399565b9150509250929050565b600080600080600060a08688031215611ba057611b9f611346565b5b6000611bae88828901611399565b9550506020611bbf88828901611399565b9450506040611bd0888289016113cf565b9350506060611be1888289016113cf565b925050608086013567ffffffffffffffff811115611c0257611c0161134b565b5b611c0e888289016117c0565b9150509295509295909350565b7f455243313135353a2062616c616e636520717565727920666f7220746865207a60008201527f65726f2061646472657373000000000000000000000000000000000000000000602082015250565b6000611c77602b83611541565b9150611c8282611c1b565b604082019050919050565b60006020820190508181036000830152611ca681611c6a565b9050919050565b7f4e487b7100000000000000000000000000000000000000000000000000000000600052602260045260246000fd5b60006002820490506001821680611cf457607f821691505b60208210811415611d0857611d07611cad565b5b50919050565b7f455243313135353a207472616e736665722063616c6c6572206973206e6f742060008201527f6f776e6572206e6f7220617070726f7665640000000000000000000000000000602082015250565b6000611d6a603283611541565b9150611d7582611d0e565b604082019050919050565b60006020820190508181036000830152611d9981611d5d565b9050919050565b7f455243313135353a206163636f756e747320616e6420696473206c656e67746860008201527f206d69736d617463680000000000000000000000000000000000000000000000602082015250565b6000611dfc602983611541565b9150611e0782611da0565b604082019050919050565b60006020820190508181036000830152611e2b81611def565b9050919050565b7f4e487b7100000000000000000000000000000000000000000000000000000000600052603260045260246000fd5b7f4e487b7100000000000000000000000000000000000000000000000000000000600052601160045260246000fd5b6000611e9b826113ae565b91507fffffffffffffffffffffffffffffffffffffffffffffffffffffffffffffffff821415611ece57611ecd611e61565b5b600182019050919050565b7f455243313135353a2063616c6c6572206973206e6f74206f776e6572206e6f7260008201527f20617070726f7665640000000000000000000000000000000000000000000000602082015250565b6000611f35602983611541565b9150611f4082611ed9565b604082019050919050565b60006020820190508181036000830152611f6481611f28565b9050919050565b7f455243313135353a2069647320616e6420616d6f756e7473206c656e6774682060008201527f6d69736d61746368000000000000000000000000000000000000000000000000602082015250565b6000611fc7602883611541565b9150611fd282611f6b565b604082019050919050565b60006020820190508181036000830152611ff681611fba565b9050919050565b7f455243313135353a207472616e7366657220746f20746865207a65726f20616460008201527f6472657373000000000000000000000000000000000000000000000000000000602082015250565b6000612059602583611541565b915061206482611ffd565b604082019050919050565b600060208201905081810360008301526120888161204c565b9050919050565b7f455243313135353a20696e73756666696369656e742062616c616e636520666f60008201527f72207472616e7366657200000000000000000000000000000000000000000000602082015250565b60006120eb602a83611541565b91506120f68261208f565b604082019050919050565b6000602082019050818103600083015261211a816120de565b9050919050565b600061212c826113ae565b9150612137836113ae565b9250827fffffffffffffffffffffffffffffffffffffffffffffffffffffffffffffffff0382111561216c5761216b611e61565b5b828201905092915050565b600060408201905081810360008301526121918185611a58565b905081810360208301526121a58184611a58565b90509392505050565b7f455243313135353a2073657474696e6720617070726f76616c2073746174757360008201527f20666f722073656c660000000000000000000000000000000000000000000000602082015250565b600061220a602983611541565b9150612215826121ae565b604082019050919050565b60006020820190508181036000830152612239816121fd565b9050919050565b60006040820190506122556000830185611424565b6122626020830184611424565b9392505050565b61227281611370565b82525050565b600081519050919050565b600082825260208201905092915050565b600061229f82612278565b6122a98185612283565b93506122b9818560208601611552565b6122c281611585565b840191505092915050565b600060a0820190506122e26000830188612269565b6122ef6020830187612269565b81810360408301526123018186611a58565b905081810360608301526123158185611a58565b905081810360808301526123298184612294565b90509695505050505050565b6000815190506123448161147a565b92915050565b6000602082840312156123605761235f611346565b5b600061236e84828501612335565b91505092915050565b60008160e01c9050919050565b600060033d11156123a35760046000803e6123a0600051612377565b90505b90565b600060443d10156123b657612439565b6123be61133c565b60043d036004823e80513d602482011167ffffffffffffffff821117156123e6575050612439565b808201805167ffffffffffffffff8111156124045750505050612439565b80602083010160043d038501811115612421575050505050612439565b61243082602001850186611625565b82955050505050505b90565b7f455243313135353a207472616e7366657220746f206e6f6e204552433131353560008201527f526563656976657220696d706c656d656e746572000000000000000000000000602082015250565b6000612498603483611541565b91506124a38261243c565b604082019050919050565b600060208201905081810360008301526124c78161248b565b9050919050565b7f455243313135353a204552433131353552656365697665722072656a6563746560008201527f6420746f6b656e73000000000000000000000000000000000000000000000000602082015250565b600061252a602883611541565b9150612535826124ce565b604082019050919050565b600060208201905081810360008301526125598161251d565b9050919050565b600060a0820190506125756000830188612269565b6125826020830187612269565b61258f6040830186611424565b61259c6060830185611424565b81810360808301526125ae8184612294565b9050969550505050505056fea2646970667358221220b56370114f4e3732242b4385f3283806511ab0b011a81f999f319d72c5d2434464736f6c634300080b003368747470733a2f2f67616d652e6578616d706c652f6170692f6974656d2f7b69647d2e6a736f6e",
  "immutableReferences": {},
  "source": "// SPDX-License-Identifier: MIT\npragma solidity >=0.4.22 <0.9.0;\n\nimport \"../../node_modules/@openzeppelin/contracts/token/ERC1155/ERC1155.sol\";\n\ncontract Gallery is ERC1155 {\n\n    uint256 public constant GOLD = 0;\n\n    constructor(address faucetAddress) public ERC1155(\"https://game.example/api/item/{id}.json\") {\n        _mint(faucetAddress, GOLD, 100**18, \"\");\n    }\n}",
  "sourcePath": "/Users/aescuderoc/Documents/HuacalCode/erc1155-ah/blockchain/contracts/solidity/Gallery.sol",
  "compiler": {
    "name": "solc",
    "version": "0.8.11+commit.d7f03943.Emscripten.clang"
  },
  "schemaVersion": "3.4.4",
  "updatedAt": "2022-05-02T17:15:08.585Z",
  "devdoc": {
    "kind": "dev",
    "methods": {
      "balanceOf(address,uint256)": {
        "details": "See {IERC1155-balanceOf}. Requirements: - `account` cannot be the zero address."
      },
      "balanceOfBatch(address[],uint256[])": {
        "details": "See {IERC1155-balanceOfBatch}. Requirements: - `accounts` and `ids` must have the same length."
      },
      "isApprovedForAll(address,address)": {
        "details": "See {IERC1155-isApprovedForAll}."
      },
      "safeBatchTransferFrom(address,address,uint256[],uint256[],bytes)": {
        "details": "See {IERC1155-safeBatchTransferFrom}."
      },
      "safeTransferFrom(address,address,uint256,uint256,bytes)": {
        "details": "See {IERC1155-safeTransferFrom}."
      },
      "setApprovalForAll(address,bool)": {
        "details": "See {IERC1155-setApprovalForAll}."
      },
      "supportsInterface(bytes4)": {
        "details": "See {IERC165-supportsInterface}."
      },
      "uri(uint256)": {
        "details": "See {IERC1155MetadataURI-uri}. This implementation returns the same URI for *all* token types. It relies on the token type ID substitution mechanism https://eips.ethereum.org/EIPS/eip-1155#metadata[defined in the EIP]. Clients calling this function must replace the `\\{id\\}` substring with the actual token type ID."
      }
    },
    "version": 1
  },
  "userdoc": {
    "kind": "user",
    "methods": {},
    "version": 1
  }
}